{
  "address": "0xD9430D582A967c84b0DeB7a711B222534a600141",
  "abi": [
    {
      "inputs": [
        {
          "internalType": "address",
          "name": "_token",
          "type": "address"
        }
      ],
      "stateMutability": "nonpayable",
      "type": "constructor"
    },
    {
      "inputs": [],
      "name": "CliffLongerThanDuration",
      "type": "error"
    },
    {
      "inputs": [],
      "name": "InsufficientBalance",
      "type": "error"
    },
    {
      "inputs": [],
      "name": "InvalidSchedule",
      "type": "error"
    },
    {
      "inputs": [],
      "name": "NotBeneficiary",
      "type": "error"
    },
    {
      "inputs": [],
      "name": "NothingToRelease",
      "type": "error"
    },
    {
      "inputs": [
        {
          "internalType": "address",
          "name": "owner",
          "type": "address"
        }
      ],
      "name": "OwnableInvalidOwner",
      "type": "error"
    },
    {
      "inputs": [
        {
          "internalType": "address",
          "name": "account",
          "type": "address"
        }
      ],
      "name": "OwnableUnauthorizedAccount",
      "type": "error"
    },
    {
      "inputs": [],
      "name": "ReentrancyGuardReentrantCall",
      "type": "error"
    },
    {
      "inputs": [
        {
          "internalType": "address",
          "name": "token",
          "type": "address"
        }
      ],
      "name": "SafeERC20FailedOperation",
      "type": "error"
    },
    {
      "inputs": [],
      "name": "ScheduleNotRevocable",
      "type": "error"
    },
    {
      "inputs": [],
      "name": "Underflow",
      "type": "error"
    },
    {
      "anonymous": false,
      "inputs": [
        {
          "indexed": true,
          "internalType": "address",
          "name": "tokenAddress",
          "type": "address"
        },
        {
          "indexed": false,
          "internalType": "uint256",
          "name": "amount",
          "type": "uint256"
        }
      ],
      "name": "EmergencyWithdraw",
      "type": "event"
    },
    {
      "anonymous": false,
      "inputs": [
        {
          "indexed": true,
          "internalType": "address",
          "name": "previousOwner",
          "type": "address"
        },
        {
          "indexed": true,
          "internalType": "address",
          "name": "newOwner",
          "type": "address"
        }
      ],
      "name": "OwnershipTransferred",
      "type": "event"
    },
    {
      "anonymous": false,
      "inputs": [
        {
          "indexed": true,
          "internalType": "bytes32",
          "name": "scheduleId",
          "type": "bytes32"
        },
        {
          "indexed": true,
          "internalType": "address",
          "name": "beneficiary",
          "type": "address"
        },
        {
          "indexed": false,
          "internalType": "uint256",
          "name": "amount",
          "type": "uint256"
        }
      ],
      "name": "TokensReleased",
      "type": "event"
    },
    {
      "anonymous": false,
      "inputs": [
        {
          "indexed": true,
          "internalType": "bytes32",
          "name": "scheduleId",
          "type": "bytes32"
        },
        {
          "indexed": false,
          "internalType": "uint256",
          "name": "unvested",
          "type": "uint256"
        }
      ],
      "name": "VestingRevoked",
      "type": "event"
    },
    {
      "anonymous": false,
      "inputs": [
        {
          "indexed": true,
          "internalType": "bytes32",
          "name": "scheduleId",
          "type": "bytes32"
        },
        {
          "indexed": true,
          "internalType": "address",
          "name": "beneficiary",
          "type": "address"
        },
        {
          "indexed": false,
          "internalType": "uint256",
          "name": "amount",
          "type": "uint256"
        }
      ],
      "name": "VestingScheduleCreated",
      "type": "event"
    },
    {
      "inputs": [
        {
          "internalType": "address[]",
          "name": "beneficiaries",
          "type": "address[]"
        },
        {
          "internalType": "uint256[]",
          "name": "amounts",
          "type": "uint256[]"
        },
        {
          "internalType": "uint256[]",
          "name": "cliffDurations",
          "type": "uint256[]"
        },
        {
          "internalType": "uint256[]",
          "name": "vestingDurations",
          "type": "uint256[]"
        },
        {
          "internalType": "bool[]",
          "name": "revocables",
          "type": "bool[]"
        }
      ],
      "name": "batchCreateSchedules",
      "outputs": [],
      "stateMutability": "nonpayable",
      "type": "function"
    },
    {
      "inputs": [
        {
          "internalType": "bytes32[]",
          "name": "scheduleIds",
          "type": "bytes32[]"
        }
      ],
      "name": "batchRelease",
      "outputs": [],
      "stateMutability": "nonpayable",
      "type": "function"
    },
    {
      "inputs": [
        {
          "internalType": "address",
          "name": "beneficiary",
          "type": "address"
        },
        {
          "internalType": "uint256",
          "name": "totalAmount",
          "type": "uint256"
        },
        {
          "internalType": "uint256",
          "name": "cliffDuration",
          "type": "uint256"
        },
        {
          "internalType": "uint256",
          "name": "vestingDuration",
          "type": "uint256"
        },
        {
          "internalType": "bool",
          "name": "revocable",
          "type": "bool"
        }
      ],
      "name": "createVestingSchedule",
      "outputs": [
        {
          "internalType": "bytes32",
          "name": "scheduleId",
          "type": "bytes32"
        }
      ],
      "stateMutability": "nonpayable",
      "type": "function"
    },
    {
      "inputs": [
        {
          "internalType": "address",
          "name": "tokenAddress",
          "type": "address"
        },
        {
          "internalType": "uint256",
          "name": "amount",
          "type": "uint256"
        }
      ],
      "name": "emergencyWithdraw",
      "outputs": [],
      "stateMutability": "nonpayable",
      "type": "function"
    },
    {
      "inputs": [
        {
          "internalType": "address",
          "name": "beneficiary",
          "type": "address"
        }
      ],
      "name": "getBeneficiarySchedules",
      "outputs": [
        {
          "internalType": "bytes32[]",
          "name": "",
          "type": "bytes32[]"
        }
      ],
      "stateMutability": "view",
      "type": "function"
    },
    {
      "inputs": [
        {
          "internalType": "bytes32",
          "name": "scheduleId",
          "type": "bytes32"
        }
      ],
      "name": "getSchedule",
      "outputs": [
        {
          "components": [
            {
              "internalType": "uint256",
              "name": "totalAmount",
              "type": "uint256"
            },
            {
              "internalType": "uint256",
              "name": "cliffDuration",
              "type": "uint256"
            },
            {
              "internalType": "uint256",
              "name": "vestingDuration",
              "type": "uint256"
            },
            {
              "internalType": "uint256",
              "name": "startTime",
              "type": "uint256"
            },
            {
              "internalType": "uint256",
              "name": "withdrawnAmount",
              "type": "uint256"
            },
            {
              "internalType": "address",
              "name": "beneficiary",
              "type": "address"
            },
            {
              "internalType": "bool",
              "name": "revocable",
              "type": "bool"
            }
          ],
          "internalType": "struct BarinVesting.VestingSchedule",
          "name": "",
          "type": "tuple"
        }
      ],
      "stateMutability": "view",
      "type": "function"
    },
    {
      "inputs": [],
      "name": "owner",
      "outputs": [
        {
          "internalType": "address",
          "name": "",
          "type": "address"
        }
      ],
      "stateMutability": "view",
      "type": "function"
    },
    {
      "inputs": [
        {
          "internalType": "bytes32",
          "name": "scheduleId",
          "type": "bytes32"
        }
      ],
      "name": "releasableAmount",
      "outputs": [
        {
          "internalType": "uint256",
          "name": "",
          "type": "uint256"
        }
      ],
      "stateMutability": "view",
      "type": "function"
    },
    {
      "inputs": [
        {
          "internalType": "bytes32",
          "name": "scheduleId",
          "type": "bytes32"
        }
      ],
      "name": "release",
      "outputs": [],
      "stateMutability": "nonpayable",
      "type": "function"
    },
    {
      "inputs": [],
      "name": "renounceOwnership",
      "outputs": [],
      "stateMutability": "nonpayable",
      "type": "function"
    },
    {
      "inputs": [
        {
          "internalType": "bytes32",
          "name": "scheduleId",
          "type": "bytes32"
        }
      ],
      "name": "revoke",
      "outputs": [],
      "stateMutability": "nonpayable",
      "type": "function"
    },
    {
      "inputs": [],
      "name": "token",
      "outputs": [
        {
          "internalType": "contract IERC20",
          "name": "",
          "type": "address"
        }
      ],
      "stateMutability": "view",
      "type": "function"
    },
    {
      "inputs": [
        {
          "internalType": "address",
          "name": "newOwner",
          "type": "address"
        }
      ],
      "name": "transferOwnership",
      "outputs": [],
      "stateMutability": "nonpayable",
      "type": "function"
    },
    {
      "inputs": [
        {
          "internalType": "bytes32",
          "name": "scheduleId",
          "type": "bytes32"
        }
      ],
      "name": "vestedAmount",
      "outputs": [
        {
          "internalType": "uint256",
          "name": "",
          "type": "uint256"
        }
      ],
      "stateMutability": "view",
      "type": "function"
    }
  ],
  "transactionHash": "0xdb38ca574711cd27d88d41ebca93fc9d4a960c03e7175fe0fed9507501280050",
  "args": [
    "0x2F073929304da0f5290eCd6e434038ECE77b54ec"
  ],
  "numDeployments": 1,
  "solcInputHash": "6d0131a47e4ff3e1a7d88e86f0351fdd",
  "bytecode": "0x60a060405234801561001057600080fd5b5060405161137f38038061137f83398101604081905261002f916100eb565b338061005557604051631e4fbdf760e01b81526000600482015260240160405180910390fd5b61005e8161009b565b50600180556001600160a01b03811661008a57604051631b742d9d60e31b815260040160405180910390fd5b6001600160a01b031660805261011b565b600080546001600160a01b038381166001600160a01b0319831681178455604051919092169283917f8be0079c531659141344cd1fd0a4f28419497f9722a3daafe3b4186f6b6457e09190a35050565b6000602082840312156100fd57600080fd5b81516001600160a01b038116811461011457600080fd5b9392505050565b60805161123461014b6000396000818161025d01528181610488015281816107c1015261099401526112346000f3fe608060405234801561001057600080fd5b50600436106100ea5760003560e01c80638fdd511e1161008c578063b75c7dc611610066578063b75c7dc614610232578063f2fde38b14610245578063fc0c546a14610258578063fc6cb0951461027f57600080fd5b80638fdd511e146101ec57806395ccea671461020c578063ae967f431461021f57600080fd5b80633adc277a116100c85780633adc277a1461013b57806367d42a8b146101aa578063715018a6146101bf5780638da5cb5b146101c757600080fd5b80630f19734f146100ef578063209535e51461011557806333bf5cf214610128575b600080fd5b6101026100fd366004610e95565b610292565b6040519081526020015b60405180910390f35b610102610123366004610ee5565b6102b3565b610102610136366004610ee5565b6102c4565b61014e610149366004610ee5565b6102cf565b60405161010c9190815181526020808301519082015260408083015190820152606080830151908201526080808301519082015260a0808301516001600160a01b03169082015260c09182015115159181019190915260e00190565b6101bd6101b8366004610ee5565b61038b565b005b6101bd610507565b6000546001600160a01b03165b6040516001600160a01b03909116815260200161010c565b6101ff6101fa366004610efe565b61051b565b60405161010c9190610f20565b6101bd61021a366004610f63565b610587565b6101bd61022d366004610fd9565b6105fc565b6101bd610240366004610ee5565b61070b565b6101bd610253366004610efe565b610829565b6101d47f000000000000000000000000000000000000000000000000000000000000000081565b6101bd61028d3660046110e4565b610869565b600061029c6108d2565b6102a986868686866108ff565b9695505050505050565b60006102be82610c15565b92915050565b60006102be82610cf3565b61031a6040518060e00160405280600081526020016000815260200160008152602001600081526020016000815260200160006001600160a01b031681526020016000151581525090565b50600090815260056020818152604092839020835160e0810185528154815260018201549281019290925260028101549382019390935260038301546060820152600483015460808201529101546001600160a01b03811660a0830152600160a01b900460ff16151560c082015290565b610393610d2c565b6000818152600560208190526040909120908101546001600160a01b031633148015906103cb57506000546001600160a01b03163314155b156103e95760405163644d871f60e01b815260040160405180910390fd5b60006103f483610c15565b60048301549091508082101561041d5760405163caccb6d960e01b815260040160405180910390fd5b6000610429828461113c565b90508060000361044c5760405163b10205ed60e01b815260040160405180910390fd5b610456818361114f565b84600401819055508060036000828254610470919061114f565b909155505060058401546104b1906001600160a01b037f00000000000000000000000000000000000000000000000000000000000000008116911683610d56565b60058401546040518281526001600160a01b039091169086907f62eb4bd96d9a7a66875a9f46f9f9d8bf6cfed3fe0578671b752301427d2a4f669060200160405180910390a35050505061050460018055565b50565b61050f6108d2565b6105196000610da8565b565b6001600160a01b03811660009081526006602090815260409182902080548351818402810184019094528084526060939283018282801561057b57602002820191906000526020600020905b815481526020019060010190808311610567575b50505050509050919050565b61058f6108d2565b6105b56105a46000546001600160a01b031690565b6001600160a01b0384169083610d56565b816001600160a01b03167f5fafa99d0643513820be26656b45130b01e1c03062e1266bf36f88cbd3bd9695826040516105f091815260200190565b60405180910390a25050565b6106046108d2565b8887811415806106145750808614155b8061061f5750808414155b8061062a5750808214155b1561064857604051631b742d9d60e31b815260040160405180910390fd5b60005b818110156106fd576106f48c8c8381811061066857610668611162565b905060200201602081019061067d9190610efe565b8b8b8481811061068f5761068f611162565b905060200201358a8a858181106106a8576106a8611162565b905060200201358989868181106106c1576106c1611162565b905060200201358888878181106106da576106da611162565b90506020020160208101906106ef9190611178565b6108ff565b5060010161064b565b505050505050505050505050565b6107136108d2565b600081815260056020819052604090912090810154600160a01b900460ff1661074f57604051630e6a74e160e11b815260040160405180910390fd5b600061075a83610c15565b9050600081836000015461076e919061113c565b82845560058401805460ff60a01b1916905560028054919250829160009061079790849061113c565b90915550508015610823576107e86107b76000546001600160a01b031690565b6001600160a01b037f0000000000000000000000000000000000000000000000000000000000000000169083610d56565b837fd76e6ddeb66c11426afbadb0c7e5cb4ef26e8dfe8043b119d95879df37d9b8e88260405161081a91815260200190565b60405180910390a25b50505050565b6108316108d2565b6001600160a01b03811661086057604051631e4fbdf760e01b8152600060048201526024015b60405180910390fd5b61050481610da8565b60005b818110156108cd57600083838381811061088857610888611162565b905060200201359050600061089c82610c15565b600083815260056020526040902060040154909150808211156108c2576108c28361038b565b50505060010161086c565b505050565b6000546001600160a01b031633146105195760405163118cdaa760e01b8152336004820152602401610857565b60006001600160a01b0386161580610915575084155b8061091e575082155b1561093c57604051631b742d9d60e31b815260040160405180910390fd5b8284111561095d57604051630668575b60e01b815260040160405180910390fd5b600060035460025461096f919061113c565b6040516370a0823160e01b815230600482015290915060009082906001600160a01b037f000000000000000000000000000000000000000000000000000000000000000016906370a0823190602401602060405180830381865afa1580156109db573d6000803e3d6000fd5b505050506040513d601f19601f820116820180604052508101906109ff9190611193565b610a09919061113c565b905086811015610a2c57604051631e9acf1760e31b815260040160405180910390fd5b8660026000828254610a3e919061114f565b909155505060048054899142918a916000610a58836111ac565b9091555060405160609490941b6bffffffffffffffffffffffff191660208501526034840192909252605483015260748201526094016040516020818303038152906040528051906020012092506040518060e0016040528088815260200187815260200186815260200142815260200160008152602001896001600160a01b0316815260200185151581525060056000858152602001908152602001600020600082015181600001556020820151816001015560408201518160020155606082015181600301556080820151816004015560a08201518160050160006101000a8154816001600160a01b0302191690836001600160a01b0316021790555060c08201518160050160146101000a81548160ff02191690831515021790555090505060066000896001600160a01b03166001600160a01b03168152602001908152602001600020839080600181540180825580915050600190039060005260206000200160009091909190915055876001600160a01b0316837ff4173b3b3302c4359c3dd6c9d18f24e03d01b04fb8edd7c3519df6ae162ad83989604051610c0291815260200190565b60405180910390a3505095945050505050565b6000818152600560208181526040808420815160e081018352815481526001820154938101939093526002810154918301919091526003810154606083015260048101546080830152909101546001600160a01b03811660a08301819052600160a01b90910460ff16151560c0830152610c925750600092915050565b6000816060015142610ca4919061113c565b90508160200151811015610cbc575060009392505050565b81604001518110610ccf57505192915050565b60408201518251610ce19083906111c5565b610ceb91906111dc565b949350505050565b600080610cff83610c15565b600084815260056020526040902060040154909150808211610d22576000610ceb565b610ceb818361113c565b600260015403610d4f57604051633ee5aeb560e01b815260040160405180910390fd5b6002600155565b604080516001600160a01b038416602482015260448082018490528251808303909101815260649091019091526020810180516001600160e01b031663a9059cbb60e01b1790526108cd908490610df8565b600080546001600160a01b038381166001600160a01b0319831681178455604051919092169283917f8be0079c531659141344cd1fd0a4f28419497f9722a3daafe3b4186f6b6457e09190a35050565b600080602060008451602086016000885af180610e1b576040513d6000823e3d81fd5b50506000513d91508115610e33578060011415610e40565b6001600160a01b0384163b155b1561082357604051635274afe760e01b81526001600160a01b0385166004820152602401610857565b80356001600160a01b0381168114610e8057600080fd5b919050565b80358015158114610e8057600080fd5b600080600080600060a08688031215610ead57600080fd5b610eb686610e69565b9450602086013593506040860135925060608601359150610ed960808701610e85565b90509295509295909350565b600060208284031215610ef757600080fd5b5035919050565b600060208284031215610f1057600080fd5b610f1982610e69565b9392505050565b602080825282518282018190526000918401906040840190835b81811015610f58578351835260209384019390920191600101610f3a565b509095945050505050565b60008060408385031215610f7657600080fd5b610f7f83610e69565b946020939093013593505050565b60008083601f840112610f9f57600080fd5b50813567ffffffffffffffff811115610fb757600080fd5b6020830191508360208260051b8501011115610fd257600080fd5b9250929050565b60008060008060008060008060008060a08b8d031215610ff857600080fd5b8a3567ffffffffffffffff81111561100f57600080fd5b61101b8d828e01610f8d565b909b5099505060208b013567ffffffffffffffff81111561103b57600080fd5b6110478d828e01610f8d565b90995097505060408b013567ffffffffffffffff81111561106757600080fd5b6110738d828e01610f8d565b90975095505060608b013567ffffffffffffffff81111561109357600080fd5b61109f8d828e01610f8d565b90955093505060808b013567ffffffffffffffff8111156110bf57600080fd5b6110cb8d828e01610f8d565b915080935050809150509295989b9194979a5092959850565b600080602083850312156110f757600080fd5b823567ffffffffffffffff81111561110e57600080fd5b61111a85828601610f8d565b90969095509350505050565b634e487b7160e01b600052601160045260246000fd5b818103818111156102be576102be611126565b808201808211156102be576102be611126565b634e487b7160e01b600052603260045260246000fd5b60006020828403121561118a57600080fd5b610f1982610e85565b6000602082840312156111a557600080fd5b5051919050565b6000600182016111be576111be611126565b5060010190565b80820281158282048414176102be576102be611126565b6000826111f957634e487b7160e01b600052601260045260246000fd5b50049056fea26469706673582212209279cf592c5de8e569c5a4923ba42afc366e8aa4987a42d8cae023c37e18c11b64736f6c634300081c0033",
  "devdoc": {
    "author": "MerkleX",
    "details": "Uses OpenZeppelins Ownable and ReentrancyGuard.       Schedules are created with a cliff period, total duration, linear vesting, and optional revocability.      Beneficiaries can claim vested tokens, and owner can revoke unvested portions if allowed.",
    "errors": {
      "OwnableInvalidOwner(address)": [
        {
          "details": "The owner is not a valid owner account. (eg. `address(0)`)"
        }
      ],
      "OwnableUnauthorizedAccount(address)": [
        {
          "details": "The caller account is not authorized to perform an operation."
        }
      ],
      "ReentrancyGuardReentrantCall()": [
        {
          "details": "Unauthorized reentrant call."
        }
      ],
      "SafeERC20FailedOperation(address)": [
        {
          "details": "An operation with an ERC-20 token failed."
        }
      ]
    },
    "kind": "dev",
    "methods": {
      "batchCreateSchedules(address[],uint256[],uint256[],uint256[],bool[])": {
        "details": "Batch create multiple vesting schedules (gas efficient)"
      },
      "batchRelease(bytes32[])": {
        "details": "Batch release for multiple schedules"
      },
      "createVestingSchedule(address,uint256,uint256,uint256,bool)": {
        "details": "Creates a new vesting schedule",
        "params": {
          "beneficiary": "Address of the beneficiary",
          "cliffDuration": "Cliff period in seconds",
          "revocable": "Whether the schedule can be revoked",
          "totalAmount": "Total amount to be vested",
          "vestingDuration": "Total vesting duration in seconds"
        }
      },
      "emergencyWithdraw(address,uint256)": {
        "details": "Emergency function to recover accidentally sent tokens"
      },
      "owner()": {
        "details": "Returns the address of the current owner."
      },
      "release(bytes32)": {
        "details": "Release vested tokens for a specific schedule"
      },
      "renounceOwnership()": {
        "details": "Leaves the contract without owner. It will not be possible to call `onlyOwner` functions. Can only be called by the current owner. NOTE: Renouncing ownership will leave the contract without an owner, thereby disabling any functionality that is only available to the owner."
      },
      "revoke(bytes32)": {
        "details": "Revoke a vesting schedule (if revocable)"
      },
      "transferOwnership(address)": {
        "details": "Transfers ownership of the contract to a new account (`newOwner`). Can only be called by the current owner."
      }
    },
    "title": "Barin Vesting Contract",
    "version": 1
  },
  "userdoc": {
    "kind": "user",
    "methods": {},
    "notice": "Manages multiple vesting schedules for BARIN token allocations across team, marketing, liquidity, and other categories.",
    "version": 1
  },
  "storageLayout": {
    "storage": [
      {
        "astId": 8,
        "contract": "contracts/BarinVesting.sol:BarinVesting",
        "label": "_owner",
        "offset": 0,
        "slot": "0",
        "type": "t_address"
      },
      {
        "astId": 1833,
        "contract": "contracts/BarinVesting.sol:BarinVesting",
        "label": "_status",
        "offset": 0,
        "slot": "1",
        "type": "t_uint256"
      },
      {
        "astId": 7909,
        "contract": "contracts/BarinVesting.sol:BarinVesting",
        "label": "_totalAllocated",
        "offset": 0,
        "slot": "2",
        "type": "t_uint256"
      },
      {
        "astId": 7911,
        "contract": "contracts/BarinVesting.sol:BarinVesting",
        "label": "_totalReleased",
        "offset": 0,
        "slot": "3",
        "type": "t_uint256"
      },
      {
        "astId": 7913,
        "contract": "contracts/BarinVesting.sol:BarinVesting",
        "label": "_nonce",
        "offset": 0,
        "slot": "4",
        "type": "t_uint256"
      },
      {
        "astId": 7918,
        "contract": "contracts/BarinVesting.sol:BarinVesting",
        "label": "_schedules",
        "offset": 0,
        "slot": "5",
        "type": "t_mapping(t_bytes32,t_struct(VestingSchedule)7904_storage)"
      },
      {
        "astId": 7923,
        "contract": "contracts/BarinVesting.sol:BarinVesting",
        "label": "_beneficiarySchedules",
        "offset": 0,
        "slot": "6",
        "type": "t_mapping(t_address,t_array(t_bytes32)dyn_storage)"
      }
    ],
    "types": {
      "t_address": {
        "encoding": "inplace",
        "label": "address",
        "numberOfBytes": "20"
      },
      "t_array(t_bytes32)dyn_storage": {
        "base": "t_bytes32",
        "encoding": "dynamic_array",
        "label": "bytes32[]",
        "numberOfBytes": "32"
      },
      "t_bool": {
        "encoding": "inplace",
        "label": "bool",
        "numberOfBytes": "1"
      },
      "t_bytes32": {
        "encoding": "inplace",
        "label": "bytes32",
        "numberOfBytes": "32"
      },
      "t_mapping(t_address,t_array(t_bytes32)dyn_storage)": {
        "encoding": "mapping",
        "key": "t_address",
        "label": "mapping(address => bytes32[])",
        "numberOfBytes": "32",
        "value": "t_array(t_bytes32)dyn_storage"
      },
      "t_mapping(t_bytes32,t_struct(VestingSchedule)7904_storage)": {
        "encoding": "mapping",
        "key": "t_bytes32",
        "label": "mapping(bytes32 => struct BarinVesting.VestingSchedule)",
        "numberOfBytes": "32",
        "value": "t_struct(VestingSchedule)7904_storage"
      },
      "t_struct(VestingSchedule)7904_storage": {
        "encoding": "inplace",
        "label": "struct BarinVesting.VestingSchedule",
        "members": [
          {
            "astId": 7891,
            "contract": "contracts/BarinVesting.sol:BarinVesting",
            "label": "totalAmount",
            "offset": 0,
            "slot": "0",
            "type": "t_uint256"
          },
          {
            "astId": 7893,
            "contract": "contracts/BarinVesting.sol:BarinVesting",
            "label": "cliffDuration",
            "offset": 0,
            "slot": "1",
            "type": "t_uint256"
          },
          {
            "astId": 7895,
            "contract": "contracts/BarinVesting.sol:BarinVesting",
            "label": "vestingDuration",
            "offset": 0,
            "slot": "2",
            "type": "t_uint256"
          },
          {
            "astId": 7897,
            "contract": "contracts/BarinVesting.sol:BarinVesting",
            "label": "startTime",
            "offset": 0,
            "slot": "3",
            "type": "t_uint256"
          },
          {
            "astId": 7899,
            "contract": "contracts/BarinVesting.sol:BarinVesting",
            "label": "withdrawnAmount",
            "offset": 0,
            "slot": "4",
            "type": "t_uint256"
          },
          {
            "astId": 7901,
            "contract": "contracts/BarinVesting.sol:BarinVesting",
            "label": "beneficiary",
            "offset": 0,
            "slot": "5",
            "type": "t_address"
          },
          {
            "astId": 7903,
            "contract": "contracts/BarinVesting.sol:BarinVesting",
            "label": "revocable",
            "offset": 20,
            "slot": "5",
            "type": "t_bool"
          }
        ],
        "numberOfBytes": "192"
      },
      "t_uint256": {
        "encoding": "inplace",
        "label": "uint256",
        "numberOfBytes": "32"
      }
    }
  }
}